{
  "address": "0x2Fa1b80Db2e8f6EfF8B3229dbFc9d1395f998F5f",
  "abi": [
    {
      "inputs": [
        {
          "internalType": "address",
          "name": "_sellerAddress",
          "type": "address"
        }
      ],
      "stateMutability": "nonpayable",
      "type": "constructor"
    },
    {
      "inputs": [
        {
          "components": [
            {
              "internalType": "bytes32",
              "name": "productId",
              "type": "bytes32"
            },
            {
              "internalType": "string",
              "name": "productName",
              "type": "string"
            },
            {
              "internalType": "uint256",
              "name": "price",
              "type": "uint256"
            },
            {
              "internalType": "uint256",
              "name": "quantity",
              "type": "uint256"
            }
          ],
          "internalType": "struct OnchainShop.Product",
          "name": "_product",
          "type": "tuple"
        }
      ],
      "name": "addProduct",
      "outputs": [],
      "stateMutability": "nonpayable",
      "type": "function"
    },
    {
      "inputs": [
        {
          "internalType": "bytes32",
          "name": "productId",
          "type": "bytes32"
        }
      ],
      "name": "buyProduct",
      "outputs": [],
      "stateMutability": "payable",
      "type": "function"
    },
    {
      "inputs": [
        {
          "internalType": "bytes32",
          "name": "",
          "type": "bytes32"
        }
      ],
      "name": "products",
      "outputs": [
        {
          "internalType": "bytes32",
          "name": "productId",
          "type": "bytes32"
        },
        {
          "internalType": "string",
          "name": "productName",
          "type": "string"
        },
        {
          "internalType": "uint256",
          "name": "price",
          "type": "uint256"
        },
        {
          "internalType": "uint256",
          "name": "quantity",
          "type": "uint256"
        }
      ],
      "stateMutability": "view",
      "type": "function"
    },
    {
      "inputs": [],
      "name": "sellerAddress",
      "outputs": [
        {
          "internalType": "address",
          "name": "",
          "type": "address"
        }
      ],
      "stateMutability": "view",
      "type": "function"
    }
  ],
  "transactionHash": "0xd19447cb71595b3cd444a59c543ed93c434746b9aa6732f07e9743ed2a3bbf6b",
  "args": [
    "0xd435E23e9A15909CA72B62461975e40Bfc24F38d"
  ],
  "numDeployments": 2,
  "solcInputHash": "f586618704006bfa49b9fb326ea4deae",
  "bytecode": "0x60a060405234801561001057600080fd5b5060405161073d38038061073d83398101604081905261002f91610040565b6001600160a01b0316608052610070565b60006020828403121561005257600080fd5b81516001600160a01b038116811461006957600080fd5b9392505050565b6080516106ac610091600039600081816056015261029601526106ac6000f3fe60806040526004361061003f5760003560e01c80633d9b2ae6146100445780635a5e1ad61461009557806379054391146100b7578063943a4dfc146100e7575b600080fd5b34801561005057600080fd5b506100787f000000000000000000000000000000000000000000000000000000000000000081565b6040516001600160a01b0390911681526020015b60405180910390f35b3480156100a157600080fd5b506100b56100b03660046103b2565b6100fa565b005b3480156100c357600080fd5b506100d76100d2366004610489565b61013f565b60405161008c94939291906104a2565b6100b56100f5366004610489565b6101f0565b805160009081526020818152604090912082518155908201518291906001820190610125908261058f565b506040820151600282015560609091015160039091015550565b6000602081905290815260409020805460018201805491929161016190610506565b80601f016020809104026020016040519081016040528092919081815260200182805461018d90610506565b80156101da5780601f106101af576101008083540402835291602001916101da565b820191906000526020600020905b8154815290600101906020018083116101bd57829003601f168201915b5050505050908060020154908060030154905084565b6000818152602081905260409020600301546102425760405162461bcd60e51b815260206004820152600c60248201526b4f7574206f662073746f636b60a01b60448201526064015b60405180910390fd5b600081815260208190526040902060020154341461025f57600080fd5b600081815260208190526040812060030180546001929061028190849061064f565b90915550506040516000906001600160a01b037f0000000000000000000000000000000000000000000000000000000000000000169034908381818185875af1925050503d80600081146102f1576040519150601f19603f3d011682016040523d82523d6000602084013e6102f6565b606091505b505090508061033e5760405162461bcd60e51b81526020600482015260146024820152732330b4b632b2103a379039b2b7321022ba3432b960611b6044820152606401610239565b5050565b634e487b7160e01b600052604160045260246000fd5b6040516080810167ffffffffffffffff8111828210171561037b5761037b610342565b60405290565b604051601f8201601f1916810167ffffffffffffffff811182821017156103aa576103aa610342565b604052919050565b600060208083850312156103c557600080fd5b823567ffffffffffffffff808211156103dd57600080fd5b90840190608082870312156103f157600080fd5b6103f9610358565b82358152838301358281111561040e57600080fd5b8301601f8101881361041f57600080fd5b80358381111561043157610431610342565b610443601f8201601f19168701610381565b9350808452888682840101111561045957600080fd5b80868301878601376000908401860152509283015260408181013590830152606090810135908201529392505050565b60006020828403121561049b57600080fd5b5035919050565b84815260006020608081840152855180608085015260005b818110156104d65787810183015185820160a0015282016104ba565b50600060a0828601015260a0601f19601f8301168501019250505083604083015282606083015295945050505050565b600181811c9082168061051a57607f821691505b60208210810361053a57634e487b7160e01b600052602260045260246000fd5b50919050565b601f82111561058a57600081815260208120601f850160051c810160208610156105675750805b601f850160051c820191505b8181101561058657828155600101610573565b5050505b505050565b815167ffffffffffffffff8111156105a9576105a9610342565b6105bd816105b78454610506565b84610540565b602080601f8311600181146105f257600084156105da5750858301515b600019600386901b1c1916600185901b178555610586565b600085815260208120601f198616915b8281101561062157888601518255948401946001909101908401610602565b508582101561063f5787850151600019600388901b60f8161c191681555b5050505050600190811b01905550565b8181038181111561067057634e487b7160e01b600052601160045260246000fd5b9291505056fea2646970667358221220513853dcbd1016666ca5bc4c7c4470e6d5cd137475cf5b76f92b90ab0150b5d464736f6c63430008110033",
  "devdoc": {
    "kind": "dev",
    "methods": {},
    "version": 1
  },
  "userdoc": {
    "kind": "user",
    "methods": {},
    "version": 1
  },
  "storageLayout": {
    "storage": [
      {
        "astId": 500,
        "contract": "contracts/OnchainShop.sol:OnchainShop",
        "label": "products",
        "offset": 0,
        "slot": "0",
        "type": "t_mapping(t_bytes32,t_struct(Product)495_storage)"
      }
    ],
    "types": {
      "t_bytes32": {
        "encoding": "inplace",
        "label": "bytes32",
        "numberOfBytes": "32"
      },
      "t_mapping(t_bytes32,t_struct(Product)495_storage)": {
        "encoding": "mapping",
        "key": "t_bytes32",
        "label": "mapping(bytes32 => struct OnchainShop.Product)",
        "numberOfBytes": "32",
        "value": "t_struct(Product)495_storage"
      },
      "t_string_storage": {
        "encoding": "bytes",
        "label": "string",
        "numberOfBytes": "32"
      },
      "t_struct(Product)495_storage": {
        "encoding": "inplace",
        "label": "struct OnchainShop.Product",
        "members": [
          {
            "astId": 488,
            "contract": "contracts/OnchainShop.sol:OnchainShop",
            "label": "productId",
            "offset": 0,
            "slot": "0",
            "type": "t_bytes32"
          },
          {
            "astId": 490,
            "contract": "contracts/OnchainShop.sol:OnchainShop",
            "label": "productName",
            "offset": 0,
            "slot": "1",
            "type": "t_string_storage"
          },
          {
            "astId": 492,
            "contract": "contracts/OnchainShop.sol:OnchainShop",
            "label": "price",
            "offset": 0,
            "slot": "2",
            "type": "t_uint256"
          },
          {
            "astId": 494,
            "contract": "contracts/OnchainShop.sol:OnchainShop",
            "label": "quantity",
            "offset": 0,
            "slot": "3",
            "type": "t_uint256"
          }
        ],
        "numberOfBytes": "128"
      },
      "t_uint256": {
        "encoding": "inplace",
        "label": "uint256",
        "numberOfBytes": "32"
      }
    }
  }
}