{
  "address": "0x97D12fC6cdfa2232AA5AEa3Eea9872ddE8D78E3D",
  "abi": [
    {
      "inputs": [
        {
          "internalType": "address",
          "name": "ownerAddress",
          "type": "address"
        },
        {
          "internalType": "address",
          "name": "trustScriptTokenAddress",
          "type": "address"
        },
        {
          "internalType": "address",
          "name": "trustScriptProductReviewAttesterAddress",
          "type": "address"
        }
      ],
      "stateMutability": "nonpayable",
      "type": "constructor"
    },
    {
      "inputs": [
        {
          "internalType": "uint256",
          "name": "productId",
          "type": "uint256"
        }
      ],
      "name": "TrustScriptShop__ExistedProductId",
      "type": "error"
    },
    {
      "inputs": [],
      "name": "TrustScriptShop__FailedToSendETH",
      "type": "error"
    },
    {
      "inputs": [
        {
          "internalType": "uint256",
          "name": "productId",
          "type": "uint256"
        }
      ],
      "name": "TrustScriptShop__NotExistedProductId",
      "type": "error"
    },
    {
      "inputs": [
        {
          "internalType": "address",
          "name": "attesterAddress",
          "type": "address"
        }
      ],
      "name": "TrustScriptShop__UnauthorizedAttester",
      "type": "error"
    },
    {
      "inputs": [
        {
          "internalType": "uint256",
          "name": "amountOfETH",
          "type": "uint256"
        },
        {
          "internalType": "uint256",
          "name": "priceInETH",
          "type": "uint256"
        }
      ],
      "name": "TrustScriptShop__UnequalAmountOfETHAndPriceInETH",
      "type": "error"
    },
    {
      "inputs": [
        {
          "internalType": "uint256",
          "name": "amountOfToken",
          "type": "uint256"
        },
        {
          "internalType": "uint256",
          "name": "priceInToken",
          "type": "uint256"
        }
      ],
      "name": "TrustScriptShop__UnequalAmountOfTokenAndPriceInToken",
      "type": "error"
    },
    {
      "inputs": [
        {
          "internalType": "uint256",
          "name": "priceInETH",
          "type": "uint256"
        },
        {
          "internalType": "uint256",
          "name": "priceInToken",
          "type": "uint256"
        }
      ],
      "name": "TrustScriptShop__UnequalPriceInETHAndPriceInToken",
      "type": "error"
    },
    {
      "anonymous": false,
      "inputs": [
        {
          "components": [
            {
              "internalType": "uint256",
              "name": "id",
              "type": "uint256"
            },
            {
              "internalType": "string",
              "name": "name",
              "type": "string"
            },
            {
              "internalType": "uint256",
              "name": "priceInETH",
              "type": "uint256"
            },
            {
              "internalType": "uint256",
              "name": "priceInToken",
              "type": "uint256"
            }
          ],
          "indexed": false,
          "internalType": "struct TrustScriptShop.Product",
          "name": "product",
          "type": "tuple"
        }
      ],
      "name": "AddProduct",
      "type": "event"
    },
    {
      "anonymous": false,
      "inputs": [
        {
          "components": [
            {
              "internalType": "uint256",
              "name": "id",
              "type": "uint256"
            },
            {
              "internalType": "string",
              "name": "name",
              "type": "string"
            },
            {
              "internalType": "uint256",
              "name": "priceInETH",
              "type": "uint256"
            },
            {
              "internalType": "uint256",
              "name": "priceInToken",
              "type": "uint256"
            }
          ],
          "indexed": false,
          "internalType": "struct TrustScriptShop.Product",
          "name": "product",
          "type": "tuple"
        }
      ],
      "name": "BuyProductWithETH",
      "type": "event"
    },
    {
      "anonymous": false,
      "inputs": [
        {
          "components": [
            {
              "internalType": "uint256",
              "name": "id",
              "type": "uint256"
            },
            {
              "internalType": "string",
              "name": "name",
              "type": "string"
            },
            {
              "internalType": "uint256",
              "name": "priceInETH",
              "type": "uint256"
            },
            {
              "internalType": "uint256",
              "name": "priceInToken",
              "type": "uint256"
            }
          ],
          "indexed": false,
          "internalType": "struct TrustScriptShop.Product",
          "name": "product",
          "type": "tuple"
        }
      ],
      "name": "BuyProductWithToken",
      "type": "event"
    },
    {
      "anonymous": false,
      "inputs": [
        {
          "indexed": false,
          "internalType": "address",
          "name": "beneficiary",
          "type": "address"
        },
        {
          "indexed": false,
          "internalType": "uint256",
          "name": "amountOfToken",
          "type": "uint256"
        }
      ],
      "name": "MintTokenToBuyer",
      "type": "event"
    },
    {
      "anonymous": false,
      "inputs": [
        {
          "indexed": true,
          "internalType": "address",
          "name": "previousOwner",
          "type": "address"
        },
        {
          "indexed": true,
          "internalType": "address",
          "name": "newOwner",
          "type": "address"
        }
      ],
      "name": "OwnershipTransferred",
      "type": "event"
    },
    {
      "anonymous": false,
      "inputs": [
        {
          "components": [
            {
              "internalType": "uint256",
              "name": "productId",
              "type": "uint256"
            },
            {
              "internalType": "address",
              "name": "buyerAddress",
              "type": "address"
            },
            {
              "internalType": "string",
              "name": "review",
              "type": "string"
            }
          ],
          "indexed": false,
          "internalType": "struct ProductReview",
          "name": "productReview",
          "type": "tuple"
        },
        {
          "indexed": false,
          "internalType": "bytes32",
          "name": "uid",
          "type": "bytes32"
        }
      ],
      "name": "ReviewProduct",
      "type": "event"
    },
    {
      "anonymous": false,
      "inputs": [
        {
          "indexed": false,
          "internalType": "uint256",
          "name": "amountOfETH",
          "type": "uint256"
        }
      ],
      "name": "WithdrawETH",
      "type": "event"
    },
    {
      "anonymous": false,
      "inputs": [
        {
          "indexed": false,
          "internalType": "uint256",
          "name": "amountOfToken",
          "type": "uint256"
        }
      ],
      "name": "WithdrawToken",
      "type": "event"
    },
    {
      "inputs": [],
      "name": "REVIEW_PRODUCT_REWARD",
      "outputs": [
        {
          "internalType": "uint256",
          "name": "",
          "type": "uint256"
        }
      ],
      "stateMutability": "view",
      "type": "function"
    },
    {
      "inputs": [],
      "name": "TOKENS_PER_ETH",
      "outputs": [
        {
          "internalType": "uint256",
          "name": "",
          "type": "uint256"
        }
      ],
      "stateMutability": "view",
      "type": "function"
    },
    {
      "inputs": [
        {
          "components": [
            {
              "internalType": "uint256",
              "name": "id",
              "type": "uint256"
            },
            {
              "internalType": "string",
              "name": "name",
              "type": "string"
            },
            {
              "internalType": "uint256",
              "name": "priceInETH",
              "type": "uint256"
            },
            {
              "internalType": "uint256",
              "name": "priceInToken",
              "type": "uint256"
            }
          ],
          "internalType": "struct TrustScriptShop.Product",
          "name": "product",
          "type": "tuple"
        }
      ],
      "name": "addProduct",
      "outputs": [],
      "stateMutability": "nonpayable",
      "type": "function"
    },
    {
      "inputs": [
        {
          "internalType": "address",
          "name": "",
          "type": "address"
        }
      ],
      "name": "allowedAttesters",
      "outputs": [
        {
          "internalType": "bool",
          "name": "",
          "type": "bool"
        }
      ],
      "stateMutability": "view",
      "type": "function"
    },
    {
      "inputs": [
        {
          "internalType": "uint256",
          "name": "id",
          "type": "uint256"
        }
      ],
      "name": "buyProductWithETH",
      "outputs": [],
      "stateMutability": "payable",
      "type": "function"
    },
    {
      "inputs": [
        {
          "internalType": "uint256",
          "name": "id",
          "type": "uint256"
        },
        {
          "internalType": "uint256",
          "name": "amountOfToken",
          "type": "uint256"
        }
      ],
      "name": "buyProductWithToken",
      "outputs": [],
      "stateMutability": "nonpayable",
      "type": "function"
    },
    {
      "inputs": [],
      "name": "getAllProductReviews",
      "outputs": [
        {
          "components": [
            {
              "internalType": "uint256",
              "name": "productId",
              "type": "uint256"
            },
            {
              "internalType": "address",
              "name": "buyerAddress",
              "type": "address"
            },
            {
              "internalType": "string",
              "name": "review",
              "type": "string"
            }
          ],
          "internalType": "struct ProductReview[]",
          "name": "allProductReviews",
          "type": "tuple[]"
        }
      ],
      "stateMutability": "view",
      "type": "function"
    },
    {
      "inputs": [],
      "name": "getAllProducts",
      "outputs": [
        {
          "components": [
            {
              "internalType": "uint256",
              "name": "id",
              "type": "uint256"
            },
            {
              "internalType": "string",
              "name": "name",
              "type": "string"
            },
            {
              "internalType": "uint256",
              "name": "priceInETH",
              "type": "uint256"
            },
            {
              "internalType": "uint256",
              "name": "priceInToken",
              "type": "uint256"
            }
          ],
          "internalType": "struct TrustScriptShop.Product[]",
          "name": "allProducts",
          "type": "tuple[]"
        }
      ],
      "stateMutability": "view",
      "type": "function"
    },
    {
      "inputs": [],
      "name": "numberOfProductReviews",
      "outputs": [
        {
          "internalType": "uint256",
          "name": "",
          "type": "uint256"
        }
      ],
      "stateMutability": "view",
      "type": "function"
    },
    {
      "inputs": [],
      "name": "numberOfProducts",
      "outputs": [
        {
          "internalType": "uint256",
          "name": "",
          "type": "uint256"
        }
      ],
      "stateMutability": "view",
      "type": "function"
    },
    {
      "inputs": [],
      "name": "owner",
      "outputs": [
        {
          "internalType": "address",
          "name": "",
          "type": "address"
        }
      ],
      "stateMutability": "view",
      "type": "function"
    },
    {
      "inputs": [
        {
          "internalType": "uint256",
          "name": "",
          "type": "uint256"
        }
      ],
      "name": "productReviewsArray",
      "outputs": [
        {
          "internalType": "uint256",
          "name": "productId",
          "type": "uint256"
        },
        {
          "internalType": "address",
          "name": "buyerAddress",
          "type": "address"
        },
        {
          "internalType": "string",
          "name": "review",
          "type": "string"
        }
      ],
      "stateMutability": "view",
      "type": "function"
    },
    {
      "inputs": [
        {
          "internalType": "uint256",
          "name": "",
          "type": "uint256"
        }
      ],
      "name": "products",
      "outputs": [
        {
          "internalType": "uint256",
          "name": "id",
          "type": "uint256"
        },
        {
          "internalType": "string",
          "name": "name",
          "type": "string"
        },
        {
          "internalType": "uint256",
          "name": "priceInETH",
          "type": "uint256"
        },
        {
          "internalType": "uint256",
          "name": "priceInToken",
          "type": "uint256"
        }
      ],
      "stateMutability": "view",
      "type": "function"
    },
    {
      "inputs": [
        {
          "internalType": "uint256",
          "name": "",
          "type": "uint256"
        }
      ],
      "name": "productsArray",
      "outputs": [
        {
          "internalType": "uint256",
          "name": "id",
          "type": "uint256"
        },
        {
          "internalType": "string",
          "name": "name",
          "type": "string"
        },
        {
          "internalType": "uint256",
          "name": "priceInETH",
          "type": "uint256"
        },
        {
          "internalType": "uint256",
          "name": "priceInToken",
          "type": "uint256"
        }
      ],
      "stateMutability": "view",
      "type": "function"
    },
    {
      "inputs": [
        {
          "internalType": "uint256",
          "name": "",
          "type": "uint256"
        }
      ],
      "name": "productsMapping",
      "outputs": [
        {
          "internalType": "bool",
          "name": "",
          "type": "bool"
        }
      ],
      "stateMutability": "view",
      "type": "function"
    },
    {
      "inputs": [],
      "name": "renounceOwnership",
      "outputs": [],
      "stateMutability": "nonpayable",
      "type": "function"
    },
    {
      "inputs": [
        {
          "internalType": "uint256",
          "name": "id",
          "type": "uint256"
        },
        {
          "internalType": "string",
          "name": "review",
          "type": "string"
        }
      ],
      "name": "reviewProduct",
      "outputs": [],
      "stateMutability": "nonpayable",
      "type": "function"
    },
    {
      "inputs": [
        {
          "internalType": "address",
          "name": "newOwner",
          "type": "address"
        }
      ],
      "name": "transferOwnership",
      "outputs": [],
      "stateMutability": "nonpayable",
      "type": "function"
    },
    {
      "inputs": [],
      "name": "trustScriptProductReviewAttester",
      "outputs": [
        {
          "internalType": "contract TrustScriptProductReviewAttester",
          "name": "",
          "type": "address"
        }
      ],
      "stateMutability": "view",
      "type": "function"
    },
    {
      "inputs": [],
      "name": "trustScriptToken",
      "outputs": [
        {
          "internalType": "contract TrustScriptToken",
          "name": "",
          "type": "address"
        }
      ],
      "stateMutability": "view",
      "type": "function"
    },
    {
      "inputs": [],
      "name": "withdrawETH",
      "outputs": [],
      "stateMutability": "nonpayable",
      "type": "function"
    },
    {
      "inputs": [],
      "name": "withdrawToken",
      "outputs": [],
      "stateMutability": "nonpayable",
      "type": "function"
    }
  ],
  "transactionHash": "0xe746f57c06e63ca807f8486b16c71ba29e67de2d0dce42418c6b77ef4fb74430",
  "args": [
    "0x35fAadD6fC68619b72A7Bfb871eDcC069C2f1bc3",
    "0x519bFCA72320728dFfD698D9cE8b7FC6f4955431",
    "0x80Eb3ccE63E5beDFe067e56e8c3dCCcbf1522247"
  ],
  "numDeployments": 1,
  "solcInputHash": "600a4f1d04d1120bafc3a677d8e15185",
  "bytecode": "0x60806040523480156200001157600080fd5b5060405162001f7738038062001f778339810160408190526200003491620001d6565b6200003f3362000088565b6200005583620000d860201b620014131760201c565b600180546001600160a01b039384166001600160a01b031991821617909155600980549290931691161790555062000220565b600080546001600160a01b038381166001600160a01b0319831681178455604051919092169283917f8be0079c531659141344cd1fd0a4f28419497f9722a3daafe3b4186f6b6457e09190a35050565b620000e26200015b565b6001600160a01b0381166200014d5760405162461bcd60e51b815260206004820152602660248201527f4f776e61626c653a206e6577206f776e657220697320746865207a65726f206160448201526564647265737360d01b60648201526084015b60405180910390fd5b620001588162000088565b50565b6000546001600160a01b03163314620001b75760405162461bcd60e51b815260206004820181905260248201527f4f776e61626c653a2063616c6c6572206973206e6f7420746865206f776e6572604482015260640162000144565b565b80516001600160a01b0381168114620001d157600080fd5b919050565b600080600060608486031215620001ec57600080fd5b620001f784620001b9565b92506200020760208501620001b9565b91506200021760408501620001b9565b90509250925092565b611d4780620002306000396000f3fe6080604052600436106101355760003560e01c80637fede655116100ab578063bc6e66041161006f578063bc6e66041461038f578063c66301b2146103a5578063ca628c78146103bb578063d4bde5a4146103d0578063e086e5ec146103f0578063f2fde38b1461040557600080fd5b80637fede655146102ea5780638da5cb5b1461030c5780638ec8b9201461032a5780639209aba31461035a57806399f171a21461037a57600080fd5b806342ceec68116100fd57806342ceec68146101f65780634e20275114610216578063533fea02146102455780636b24808014610275578063715018a6146102b55780637acc0b20146102ca57600080fd5b806302ee3a521461013a5780630b048bf9146101655780630d0438e51461017a5780633d136ce61461019e578063408b464b146101d6575b600080fd5b34801561014657600080fd5b5061014f610425565b60405161015c91906115bb565b60405180910390f35b61017861017336600461161d565b610622565b005b34801561018657600080fd5b5061019060075481565b60405190815260200161015c565b3480156101aa57600080fd5b506001546101be906001600160a01b031681565b6040516001600160a01b03909116815260200161015c565b3480156101e257600080fd5b506101786101f13660046116d9565b610784565b34801561020257600080fd5b5061017861021136600461177d565b6109e2565b34801561022257600080fd5b5061023661023136600461161d565b610b5c565b60405161015c9392919061179f565b34801561025157600080fd5b5061026561026036600461161d565b610c25565b60405161015c94939291906117d2565b34801561028157600080fd5b506102a56102903660046117fe565b60086020526000908152604090205460ff1681565b604051901515815260200161015c565b3480156102c157600080fd5b50610178610ce9565b3480156102d657600080fd5b506102656102e536600461161d565b610cfd565b3480156102f657600080fd5b506102ff610d1f565b60405161015c9190611867565b34801561031857600080fd5b506000546001600160a01b03166101be565b34801561033657600080fd5b506102a561034536600461161d565b60026020526000908152604090205460ff1681565b34801561036657600080fd5b506101786103753660046118bc565b610f14565b34801561038657600080fd5b50610190600581565b34801561039b57600080fd5b506101906103e881565b3480156103b157600080fd5b5061019060055481565b3480156103c757600080fd5b5061017861124d565b3480156103dc57600080fd5b506009546101be906001600160a01b031681565b3480156103fc57600080fd5b50610178611369565b34801561041157600080fd5b506101786104203660046117fe565b611413565b606060055460000361048b576040805160008082526020820190925290610485565b6104726040518060800160405280600081526020016060815260200160008152602001600081525090565b8152602001906001900390816104475790505b50905090565b60055467ffffffffffffffff8111156104a6576104a6611636565b60405190808252806020026020018201604052801561050257816020015b6104ef6040518060800160405280600081526020016060815260200160008152602001600081525090565b8152602001906001900390816104c45790505b50905060005b60055481101561061e576003818154811061052557610525611903565b90600052602060002090600402016040518060800160405290816000820154815260200160018201805461055890611919565b80601f016020809104026020016040519081016040528092919081815260200182805461058490611919565b80156105d15780601f106105a6576101008083540402835291602001916105d1565b820191906000526020600020905b8154815290600101906020018083116105b457829003601f168201915b505050505081526020016002820154815260200160038201548152505082828151811061060057610600611903565b6020026020010181905250808061061690611969565b915050610508565b5090565b60008181526002602052604090205460ff16610659576040516307a9245160e31b8152600481018290526024015b60405180910390fd5b60008181526004602052604090206002015434811461069457604051630e937f8360e31b815234600482015260248101829052604401610650565b3360009081526008602052604090205460ff166106c657336000908152600860205260409020805460ff191660011790555b600080546040516001600160a01b039091169083908381818185875af1925050503d8060008114610713576040519150601f19603f3d011682016040523d82523d6000602084013e610718565b606091505b505090508061073a5760405163153eabe760e21b815260040160405180910390fd5b6000838152600460205260409081902090517f80b008c23ba396abd41f65d41a12010624d026bad3ccc607f74a049db22227829161077791611982565b60405180910390a1505050565b61078c61148c565b805160009081526002602052604090205460ff16156107c457805160405163041a639760e21b81526004810191909152602401610650565b60608101516107db90670de0b6b3a7640000611a35565b600160009054906101000a90046001600160a01b03166001600160a01b031663313ce5676040518163ffffffff1660e01b8152600401602060405180830381865afa15801561082e573d6000803e3d6000fd5b505050506040513d601f19601f820116820180604052508101906108529190611a52565b61085d90600a611b59565b6103e8836040015161086f9190611a35565b6108799190611a35565b146108ac5780604001518160600151604051630715c89760e21b8152600401610650929190918252602082015260400190565b805160009081526002602090815260408220805460ff19166001908117909155600380549182018155909252825160049092027fc2575a0e9e593c00f959f8c92f12db2869c3395a3b0502d05e2516446f71f85b8101928355908301518392917fc2575a0e9e593c00f959f8c92f12db2869c3395a3b0502d05e2516446f71f85c01906109399082611bb7565b50604082810151600283015560609092015160039091015581516000908152600460209081529190208251815590820151829190600182019061097c9082611bb7565b5060408201516002820155606090910151600390910155600580549060006109a383611969565b91905055507f6081ab90273434d14cdb413a1372cf450edb167a43bd13f83192bac5c202e829816040516109d79190611c77565b60405180910390a150565b60008281526002602052604090205460ff16610a14576040516307a9245160e31b815260048101839052602401610650565b600082815260046020526040902060030154818114610a5057604051632839176f60e11b81526004810183905260248101829052604401610650565b3360009081526008602052604090205460ff16610a8257336000908152600860205260409020805460ff191660011790555b6001546001600160a01b03166323b872dd33610aa66000546001600160a01b031690565b6040516001600160e01b031960e085901b1681526001600160a01b03928316600482015291166024820152604481018590526064016020604051808303816000875af1158015610afa573d6000803e3d6000fd5b505050506040513d601f19601f82011682018060405250810190610b1e9190611c8a565b506000838152600460205260409081902090517f22480d75c984baa5c2c0864c88e2c5468b406560a6436d46cc009641e08073ee9161077791611982565b60068181548110610b6c57600080fd5b60009182526020909120600390910201805460018201546002830180549294506001600160a01b039091169291610ba290611919565b80601f0160208091040260200160405190810160405280929190818152602001828054610bce90611919565b8015610c1b5780601f10610bf057610100808354040283529160200191610c1b565b820191906000526020600020905b815481529060010190602001808311610bfe57829003601f168201915b5050505050905083565b60038181548110610c3557600080fd5b60009182526020909120600490910201805460018201805491935090610c5a90611919565b80601f0160208091040260200160405190810160405280929190818152602001828054610c8690611919565b8015610cd35780601f10610ca857610100808354040283529160200191610cd3565b820191906000526020600020905b815481529060010190602001808311610cb657829003601f168201915b5050505050908060020154908060030154905084565b610cf161148c565b610cfb60006114e6565b565b60046020526000908152604090208054600182018054919291610c5a90611919565b6060600754600003610d75576040805160008082526020820190925290610485565b60408051606080820183526000808352602083015291810191909152815260200190600190039081610d4157905050905090565b60075467ffffffffffffffff811115610d9057610d90611636565b604051908082528060200260200182016040528015610ddd57816020015b60408051606080820183526000808352602083015291810191909152815260200190600190039081610dae5790505b50905060005b60075481101561061e5760068181548110610e0057610e00611903565b9060005260206000209060030201604051806060016040529081600082015481526020016001820160009054906101000a90046001600160a01b03166001600160a01b03166001600160a01b03168152602001600282018054610e6290611919565b80601f0160208091040260200160405190810160405280929190818152602001828054610e8e90611919565b8015610edb5780601f10610eb057610100808354040283529160200191610edb565b820191906000526020600020905b815481529060010190602001808311610ebe57829003601f168201915b505050505081525050828281518110610ef657610ef6611903565b60200260200101819052508080610f0c90611969565b915050610de3565b3360009081526008602052604090205460ff16610f4657604051633a5e3bf960e01b8152336004820152602401610650565b60008281526002602052604090205460ff16610f78576040516307a9245160e31b815260048101839052602401610650565b604080516060810182528381523360208201529081018290526009546000906001600160a01b0316639eb2546183610fb86000546001600160a01b031690565b6040518363ffffffff1660e01b8152600401610fd5929190611cac565b6020604051808303816000875af1158015610ff4573d6000803e3d6000fd5b505050506040513d601f19601f820116820180604052508101906110189190611cd6565b90507ff12d448b61b358eff802784abaa5526f0709c9af624e50e198979547d75125a4828260405161104b929190611cef565b60405180910390a16006805460018101825560009190915282517ff652222313e28459528d920b65115c16c04f3efc82aaedc97be59f3f377c0d3f600390920291820190815560208401517ff652222313e28459528d920b65115c16c04f3efc82aaedc97be59f3f377c0d40830180546001600160a01b0319166001600160a01b03909216919091179055604084015184927ff652222313e28459528d920b65115c16c04f3efc82aaedc97be59f3f377c0d41019061110a9082611bb7565b5050600780549150600061111d83611969565b90915550506001546040805163313ce56760e01b815290516001600160a01b03909216916340c10f19913391849163313ce5679160048083019260209291908290030181865afa158015611175573d6000803e3d6000fd5b505050506040513d601f19601f820116820180604052508101906111999190611a52565b6111a490600a611b59565b6111af906005611a35565b6040516001600160e01b031960e085901b1681526001600160a01b0390921660048301526024820152604401600060405180830381600087803b1580156111f557600080fd5b505af1158015611209573d6000803e3d6000fd5b505060408051338152600560208201527f1a628df0209a48522b66d5226782fac0327ed236ff817fdbcb20425bb97e32f3935001905060405180910390a150505050565b61125561148c565b6001546040516370a0823160e01b81523060048201526000916001600160a01b0316906370a0823190602401602060405180830381865afa15801561129e573d6000803e3d6000fd5b505050506040513d601f19601f820116820180604052508101906112c29190611cd6565b60015460405163a9059cbb60e01b8152336004820152602481018390529192506001600160a01b03169063a9059cbb906044016020604051808303816000875af1158015611314573d6000803e3d6000fd5b505050506040513d601f19601f820116820180604052508101906113389190611c8a565b506040518181527fa4b910fb649c34bca8f9ecc6ba43090dbd1d14f3197d9f10ca054de15da71601906020016109d7565b61137161148c565b6040514790600090339083908381818185875af1925050503d80600081146113b5576040519150601f19603f3d011682016040523d82523d6000602084013e6113ba565b606091505b50509050806113dc5760405163153eabe760e21b815260040160405180910390fd5b6040518281527f94effa14ea3a1ef396fa2fd829336d1597f1d76b548c26bfa2332869706638af9060200160405180910390a15050565b61141b61148c565b6001600160a01b0381166114805760405162461bcd60e51b815260206004820152602660248201527f4f776e61626c653a206e6577206f776e657220697320746865207a65726f206160448201526564647265737360d01b6064820152608401610650565b611489816114e6565b50565b6000546001600160a01b03163314610cfb5760405162461bcd60e51b815260206004820181905260248201527f4f776e61626c653a2063616c6c6572206973206e6f7420746865206f776e65726044820152606401610650565b600080546001600160a01b038381166001600160a01b0319831681178455604051919092169283917f8be0079c531659141344cd1fd0a4f28419497f9722a3daafe3b4186f6b6457e09190a35050565b6000815180845260005b8181101561155c57602081850181015186830182015201611540565b506000602082860101526020601f19601f83011685010191505092915050565b80518252600060208201516080602085015261159b6080850182611536565b905060408301516040850152606083015160608501528091505092915050565b6000602080830181845280855180835260408601915060408160051b870101925083870160005b8281101561161057603f198886030184526115fe85835161157c565b945092850192908501906001016115e2565b5092979650505050505050565b60006020828403121561162f57600080fd5b5035919050565b634e487b7160e01b600052604160045260246000fd5b600082601f83011261165d57600080fd5b813567ffffffffffffffff8082111561167857611678611636565b604051601f8301601f19908116603f011681019082821181831017156116a0576116a0611636565b816040528381528660208588010111156116b957600080fd5b836020870160208301376000602085830101528094505050505092915050565b6000602082840312156116eb57600080fd5b813567ffffffffffffffff8082111561170357600080fd5b908301906080828603121561171757600080fd5b60405160808101818110838211171561173257611732611636565b6040528235815260208301358281111561174b57600080fd5b6117578782860161164c565b602083015250604083013560408201526060830135606082015280935050505092915050565b6000806040838503121561179057600080fd5b50508035926020909101359150565b8381526001600160a01b03831660208201526060604082018190526000906117c990830184611536565b95945050505050565b8481526080602082015260006117eb6080830186611536565b6040830194909452506060015292915050565b60006020828403121561181057600080fd5b81356001600160a01b038116811461182757600080fd5b9392505050565b8051825260018060a01b036020820151166020830152600060408201516060604085015261185f6060850182611536565b949350505050565b6000602080830181845280855180835260408601915060408160051b870101925083870160005b8281101561161057603f198886030184526118aa85835161182e565b9450928501929085019060010161188e565b600080604083850312156118cf57600080fd5b82359150602083013567ffffffffffffffff8111156118ed57600080fd5b6118f98582860161164c565b9150509250929050565b634e487b7160e01b600052603260045260246000fd5b600181811c9082168061192d57607f821691505b60208210810361194d57634e487b7160e01b600052602260045260246000fd5b50919050565b634e487b7160e01b600052601160045260246000fd5b60006001820161197b5761197b611953565b5060010190565b60006020808352835481840152600180850160806040860152600081546119a881611919565b8060a089015260c0858316600081146119c857600181146119e257611a10565b60ff1984168a83015282151560051b8a0182019450611a10565b856000528760002060005b84811015611a085781548c82018501529088019089016119ed565b8b0183019550505b5050505060028701546060870152600387015460808701528094505050505092915050565b8082028115828204841417611a4c57611a4c611953565b92915050565b600060208284031215611a6457600080fd5b815160ff8116811461182757600080fd5b600181815b80851115611ab0578160001904821115611a9657611a96611953565b80851615611aa357918102915b93841c9390800290611a7a565b509250929050565b600082611ac757506001611a4c565b81611ad457506000611a4c565b8160018114611aea5760028114611af457611b10565b6001915050611a4c565b60ff841115611b0557611b05611953565b50506001821b611a4c565b5060208310610133831016604e8410600b8410161715611b33575081810a611a4c565b611b3d8383611a75565b8060001904821115611b5157611b51611953565b029392505050565b600061182760ff841683611ab8565b601f821115611bb257600081815260208120601f850160051c81016020861015611b8f5750805b601f850160051c820191505b81811015611bae57828155600101611b9b565b5050505b505050565b815167ffffffffffffffff811115611bd157611bd1611636565b611be581611bdf8454611919565b84611b68565b602080601f831160018114611c1a5760008415611c025750858301515b600019600386901b1c1916600185901b178555611bae565b600085815260208120601f198616915b82811015611c4957888601518255948401946001909101908401611c2a565b5085821015611c675787850151600019600388901b60f8161c191681555b5050505050600190811b01905550565b602081526000611827602083018461157c565b600060208284031215611c9c57600080fd5b8151801515811461182757600080fd5b604081526000611cbf604083018561182e565b905060018060a01b03831660208301529392505050565b600060208284031215611ce857600080fd5b5051919050565b604081526000611d02604083018561182e565b9050826020830152939250505056fea26469706673582212203a3e095763617b6095afbc42b5b6cdee8c1c4dc877832f9f43b15ae9d5a3cecc64736f6c63430008110033",
  "devdoc": {
    "kind": "dev",
    "methods": {
      "owner()": {
        "details": "Returns the address of the current owner."
      },
      "renounceOwnership()": {
        "details": "Leaves the contract without owner. It will not be possible to call `onlyOwner` functions. Can only be called by the current owner. NOTE: Renouncing ownership will leave the contract without an owner, thereby disabling any functionality that is only available to the owner."
      },
      "transferOwnership(address)": {
        "details": "Transfers ownership of the contract to a new account (`newOwner`). Can only be called by the current owner."
      }
    },
    "version": 1
  },
  "userdoc": {
    "kind": "user",
    "methods": {},
    "version": 1
  },
  "storageLayout": {
    "storage": [
      {
        "astId": 490,
        "contract": "contracts/TrustScriptShop.sol:TrustScriptShop",
        "label": "_owner",
        "offset": 0,
        "slot": "0",
        "type": "t_address"
      },
      {
        "astId": 1419,
        "contract": "contracts/TrustScriptShop.sol:TrustScriptShop",
        "label": "trustScriptToken",
        "offset": 0,
        "slot": "1",
        "type": "t_contract(TrustScriptToken)2104"
      },
      {
        "astId": 1429,
        "contract": "contracts/TrustScriptShop.sol:TrustScriptShop",
        "label": "productsMapping",
        "offset": 0,
        "slot": "2",
        "type": "t_mapping(t_uint256,t_bool)"
      },
      {
        "astId": 1433,
        "contract": "contracts/TrustScriptShop.sol:TrustScriptShop",
        "label": "productsArray",
        "offset": 0,
        "slot": "3",
        "type": "t_array(t_struct(Product)1416_storage)dyn_storage"
      },
      {
        "astId": 1438,
        "contract": "contracts/TrustScriptShop.sol:TrustScriptShop",
        "label": "products",
        "offset": 0,
        "slot": "4",
        "type": "t_mapping(t_uint256,t_struct(Product)1416_storage)"
      },
      {
        "astId": 1440,
        "contract": "contracts/TrustScriptShop.sol:TrustScriptShop",
        "label": "numberOfProducts",
        "offset": 0,
        "slot": "5",
        "type": "t_uint256"
      },
      {
        "astId": 1444,
        "contract": "contracts/TrustScriptShop.sol:TrustScriptShop",
        "label": "productReviewsArray",
        "offset": 0,
        "slot": "6",
        "type": "t_array(t_struct(ProductReview)1323_storage)dyn_storage"
      },
      {
        "astId": 1446,
        "contract": "contracts/TrustScriptShop.sol:TrustScriptShop",
        "label": "numberOfProductReviews",
        "offset": 0,
        "slot": "7",
        "type": "t_uint256"
      },
      {
        "astId": 1450,
        "contract": "contracts/TrustScriptShop.sol:TrustScriptShop",
        "label": "allowedAttesters",
        "offset": 0,
        "slot": "8",
        "type": "t_mapping(t_address,t_bool)"
      },
      {
        "astId": 1453,
        "contract": "contracts/TrustScriptShop.sol:TrustScriptShop",
        "label": "trustScriptProductReviewAttester",
        "offset": 0,
        "slot": "9",
        "type": "t_contract(TrustScriptProductReviewAttester)1399"
      }
    ],
    "types": {
      "t_address": {
        "encoding": "inplace",
        "label": "address",
        "numberOfBytes": "20"
      },
      "t_array(t_struct(Product)1416_storage)dyn_storage": {
        "base": "t_struct(Product)1416_storage",
        "encoding": "dynamic_array",
        "label": "struct TrustScriptShop.Product[]",
        "numberOfBytes": "32"
      },
      "t_array(t_struct(ProductReview)1323_storage)dyn_storage": {
        "base": "t_struct(ProductReview)1323_storage",
        "encoding": "dynamic_array",
        "label": "struct ProductReview[]",
        "numberOfBytes": "32"
      },
      "t_bool": {
        "encoding": "inplace",
        "label": "bool",
        "numberOfBytes": "1"
      },
      "t_contract(TrustScriptProductReviewAttester)1399": {
        "encoding": "inplace",
        "label": "contract TrustScriptProductReviewAttester",
        "numberOfBytes": "20"
      },
      "t_contract(TrustScriptToken)2104": {
        "encoding": "inplace",
        "label": "contract TrustScriptToken",
        "numberOfBytes": "20"
      },
      "t_mapping(t_address,t_bool)": {
        "encoding": "mapping",
        "key": "t_address",
        "label": "mapping(address => bool)",
        "numberOfBytes": "32",
        "value": "t_bool"
      },
      "t_mapping(t_uint256,t_bool)": {
        "encoding": "mapping",
        "key": "t_uint256",
        "label": "mapping(uint256 => bool)",
        "numberOfBytes": "32",
        "value": "t_bool"
      },
      "t_mapping(t_uint256,t_struct(Product)1416_storage)": {
        "encoding": "mapping",
        "key": "t_uint256",
        "label": "mapping(uint256 => struct TrustScriptShop.Product)",
        "numberOfBytes": "32",
        "value": "t_struct(Product)1416_storage"
      },
      "t_string_storage": {
        "encoding": "bytes",
        "label": "string",
        "numberOfBytes": "32"
      },
      "t_struct(Product)1416_storage": {
        "encoding": "inplace",
        "label": "struct TrustScriptShop.Product",
        "members": [
          {
            "astId": 1409,
            "contract": "contracts/TrustScriptShop.sol:TrustScriptShop",
            "label": "id",
            "offset": 0,
            "slot": "0",
            "type": "t_uint256"
          },
          {
            "astId": 1411,
            "contract": "contracts/TrustScriptShop.sol:TrustScriptShop",
            "label": "name",
            "offset": 0,
            "slot": "1",
            "type": "t_string_storage"
          },
          {
            "astId": 1413,
            "contract": "contracts/TrustScriptShop.sol:TrustScriptShop",
            "label": "priceInETH",
            "offset": 0,
            "slot": "2",
            "type": "t_uint256"
          },
          {
            "astId": 1415,
            "contract": "contracts/TrustScriptShop.sol:TrustScriptShop",
            "label": "priceInToken",
            "offset": 0,
            "slot": "3",
            "type": "t_uint256"
          }
        ],
        "numberOfBytes": "128"
      },
      "t_struct(ProductReview)1323_storage": {
        "encoding": "inplace",
        "label": "struct ProductReview",
        "members": [
          {
            "astId": 1318,
            "contract": "contracts/TrustScriptShop.sol:TrustScriptShop",
            "label": "productId",
            "offset": 0,
            "slot": "0",
            "type": "t_uint256"
          },
          {
            "astId": 1320,
            "contract": "contracts/TrustScriptShop.sol:TrustScriptShop",
            "label": "buyerAddress",
            "offset": 0,
            "slot": "1",
            "type": "t_address"
          },
          {
            "astId": 1322,
            "contract": "contracts/TrustScriptShop.sol:TrustScriptShop",
            "label": "review",
            "offset": 0,
            "slot": "2",
            "type": "t_string_storage"
          }
        ],
        "numberOfBytes": "96"
      },
      "t_uint256": {
        "encoding": "inplace",
        "label": "uint256",
        "numberOfBytes": "32"
      }
    }
  }
}