{
  "address": "0xd336CBb476B704Ba8c0CbAaaE4911615240dEd86",
  "abi": [
    {
      "inputs": [
        {
          "internalType": "address",
          "name": "ownerAddress",
          "type": "address"
        },
        {
          "internalType": "address",
          "name": "trustScriptTokenAddress",
          "type": "address"
        },
        {
          "internalType": "address",
          "name": "trustScriptProductReviewAttesterAddress",
          "type": "address"
        }
      ],
      "stateMutability": "nonpayable",
      "type": "constructor"
    },
    {
      "inputs": [
        {
          "internalType": "address",
          "name": "attesterAddress",
          "type": "address"
        }
      ],
      "name": "TrustScriptShop__DisallowedAttester",
      "type": "error"
    },
    {
      "inputs": [
        {
          "internalType": "uint256",
          "name": "productId",
          "type": "uint256"
        }
      ],
      "name": "TrustScriptShop__ExistedProductId",
      "type": "error"
    },
    {
      "inputs": [],
      "name": "TrustScriptShop__FailedToSendETH",
      "type": "error"
    },
    {
      "inputs": [
        {
          "internalType": "uint256",
          "name": "productId",
          "type": "uint256"
        }
      ],
      "name": "TrustScriptShop__NotExistedProductId",
      "type": "error"
    },
    {
      "inputs": [
        {
          "internalType": "uint256",
          "name": "amountOfETH",
          "type": "uint256"
        },
        {
          "internalType": "uint256",
          "name": "priceInETH",
          "type": "uint256"
        }
      ],
      "name": "TrustScriptShop__UnequalAmountOfETHAndPriceInETH",
      "type": "error"
    },
    {
      "inputs": [
        {
          "internalType": "uint256",
          "name": "amountOfToken",
          "type": "uint256"
        },
        {
          "internalType": "uint256",
          "name": "priceInToken",
          "type": "uint256"
        }
      ],
      "name": "TrustScriptShop__UnequalAmountOfTokenAndPriceInToken",
      "type": "error"
    },
    {
      "inputs": [
        {
          "internalType": "uint256",
          "name": "priceInETH",
          "type": "uint256"
        },
        {
          "internalType": "uint256",
          "name": "priceInToken",
          "type": "uint256"
        }
      ],
      "name": "TrustScriptShop__UnequalPriceInETHAndPriceInToken",
      "type": "error"
    },
    {
      "anonymous": false,
      "inputs": [
        {
          "indexed": false,
          "internalType": "address",
          "name": "sellerAddress",
          "type": "address"
        },
        {
          "components": [
            {
              "internalType": "uint256",
              "name": "id",
              "type": "uint256"
            },
            {
              "internalType": "string",
              "name": "name",
              "type": "string"
            },
            {
              "internalType": "uint256",
              "name": "priceInETH",
              "type": "uint256"
            },
            {
              "internalType": "uint256",
              "name": "priceInToken",
              "type": "uint256"
            }
          ],
          "indexed": false,
          "internalType": "struct TrustScriptShop.Product",
          "name": "product",
          "type": "tuple"
        }
      ],
      "name": "AddProduct",
      "type": "event"
    },
    {
      "anonymous": false,
      "inputs": [
        {
          "indexed": false,
          "internalType": "address",
          "name": "buyerAddress",
          "type": "address"
        },
        {
          "components": [
            {
              "internalType": "uint256",
              "name": "id",
              "type": "uint256"
            },
            {
              "internalType": "string",
              "name": "name",
              "type": "string"
            },
            {
              "internalType": "uint256",
              "name": "priceInETH",
              "type": "uint256"
            },
            {
              "internalType": "uint256",
              "name": "priceInToken",
              "type": "uint256"
            }
          ],
          "indexed": false,
          "internalType": "struct TrustScriptShop.Product",
          "name": "product",
          "type": "tuple"
        }
      ],
      "name": "BuyProductWithETH",
      "type": "event"
    },
    {
      "anonymous": false,
      "inputs": [
        {
          "indexed": false,
          "internalType": "address",
          "name": "buyerAddress",
          "type": "address"
        },
        {
          "components": [
            {
              "internalType": "uint256",
              "name": "id",
              "type": "uint256"
            },
            {
              "internalType": "string",
              "name": "name",
              "type": "string"
            },
            {
              "internalType": "uint256",
              "name": "priceInETH",
              "type": "uint256"
            },
            {
              "internalType": "uint256",
              "name": "priceInToken",
              "type": "uint256"
            }
          ],
          "indexed": false,
          "internalType": "struct TrustScriptShop.Product",
          "name": "product",
          "type": "tuple"
        }
      ],
      "name": "BuyProductWithToken",
      "type": "event"
    },
    {
      "anonymous": false,
      "inputs": [
        {
          "indexed": false,
          "internalType": "address",
          "name": "buyerAddress",
          "type": "address"
        },
        {
          "indexed": false,
          "internalType": "uint256",
          "name": "amountOfToken",
          "type": "uint256"
        }
      ],
      "name": "MintTokenToBuyer",
      "type": "event"
    },
    {
      "anonymous": false,
      "inputs": [
        {
          "indexed": true,
          "internalType": "address",
          "name": "previousOwner",
          "type": "address"
        },
        {
          "indexed": true,
          "internalType": "address",
          "name": "newOwner",
          "type": "address"
        }
      ],
      "name": "OwnershipTransferred",
      "type": "event"
    },
    {
      "anonymous": false,
      "inputs": [
        {
          "indexed": false,
          "internalType": "address",
          "name": "buyerAddress",
          "type": "address"
        },
        {
          "components": [
            {
              "internalType": "bytes32",
              "name": "attestationUID",
              "type": "bytes32"
            },
            {
              "internalType": "uint256",
              "name": "productId",
              "type": "uint256"
            },
            {
              "internalType": "address",
              "name": "buyerAddress",
              "type": "address"
            },
            {
              "internalType": "string",
              "name": "review",
              "type": "string"
            }
          ],
          "indexed": false,
          "internalType": "struct TrustScriptShop.ProductReview",
          "name": "productReview",
          "type": "tuple"
        }
      ],
      "name": "ReviewProduct",
      "type": "event"
    },
    {
      "anonymous": false,
      "inputs": [
        {
          "indexed": false,
          "internalType": "uint256",
          "name": "amountOfETH",
          "type": "uint256"
        }
      ],
      "name": "WithdrawETH",
      "type": "event"
    },
    {
      "anonymous": false,
      "inputs": [
        {
          "indexed": false,
          "internalType": "uint256",
          "name": "amountOfToken",
          "type": "uint256"
        }
      ],
      "name": "WithdrawToken",
      "type": "event"
    },
    {
      "inputs": [],
      "name": "REVIEW_PRODUCT_REWARD",
      "outputs": [
        {
          "internalType": "uint256",
          "name": "",
          "type": "uint256"
        }
      ],
      "stateMutability": "view",
      "type": "function"
    },
    {
      "inputs": [],
      "name": "TOKENS_PER_ETH",
      "outputs": [
        {
          "internalType": "uint256",
          "name": "",
          "type": "uint256"
        }
      ],
      "stateMutability": "view",
      "type": "function"
    },
    {
      "inputs": [
        {
          "components": [
            {
              "internalType": "uint256",
              "name": "id",
              "type": "uint256"
            },
            {
              "internalType": "string",
              "name": "name",
              "type": "string"
            },
            {
              "internalType": "uint256",
              "name": "priceInETH",
              "type": "uint256"
            },
            {
              "internalType": "uint256",
              "name": "priceInToken",
              "type": "uint256"
            }
          ],
          "internalType": "struct TrustScriptShop.Product",
          "name": "product",
          "type": "tuple"
        }
      ],
      "name": "addProduct",
      "outputs": [],
      "stateMutability": "nonpayable",
      "type": "function"
    },
    {
      "inputs": [
        {
          "internalType": "address",
          "name": "",
          "type": "address"
        }
      ],
      "name": "allowedAttesters",
      "outputs": [
        {
          "internalType": "bool",
          "name": "",
          "type": "bool"
        }
      ],
      "stateMutability": "view",
      "type": "function"
    },
    {
      "inputs": [
        {
          "internalType": "uint256",
          "name": "id",
          "type": "uint256"
        }
      ],
      "name": "buyProductWithETH",
      "outputs": [],
      "stateMutability": "payable",
      "type": "function"
    },
    {
      "inputs": [
        {
          "internalType": "uint256",
          "name": "id",
          "type": "uint256"
        },
        {
          "internalType": "uint256",
          "name": "amountOfToken",
          "type": "uint256"
        }
      ],
      "name": "buyProductWithToken",
      "outputs": [],
      "stateMutability": "nonpayable",
      "type": "function"
    },
    {
      "inputs": [],
      "name": "getAllProductReviews",
      "outputs": [
        {
          "components": [
            {
              "internalType": "bytes32",
              "name": "attestationUID",
              "type": "bytes32"
            },
            {
              "internalType": "uint256",
              "name": "productId",
              "type": "uint256"
            },
            {
              "internalType": "address",
              "name": "buyerAddress",
              "type": "address"
            },
            {
              "internalType": "string",
              "name": "review",
              "type": "string"
            }
          ],
          "internalType": "struct TrustScriptShop.ProductReview[]",
          "name": "allProductReviews",
          "type": "tuple[]"
        }
      ],
      "stateMutability": "view",
      "type": "function"
    },
    {
      "inputs": [],
      "name": "getAllProducts",
      "outputs": [
        {
          "components": [
            {
              "internalType": "uint256",
              "name": "id",
              "type": "uint256"
            },
            {
              "internalType": "string",
              "name": "name",
              "type": "string"
            },
            {
              "internalType": "uint256",
              "name": "priceInETH",
              "type": "uint256"
            },
            {
              "internalType": "uint256",
              "name": "priceInToken",
              "type": "uint256"
            }
          ],
          "internalType": "struct TrustScriptShop.Product[]",
          "name": "allProducts",
          "type": "tuple[]"
        }
      ],
      "stateMutability": "view",
      "type": "function"
    },
    {
      "inputs": [],
      "name": "numberOfProductReviews",
      "outputs": [
        {
          "internalType": "uint256",
          "name": "",
          "type": "uint256"
        }
      ],
      "stateMutability": "view",
      "type": "function"
    },
    {
      "inputs": [],
      "name": "numberOfProducts",
      "outputs": [
        {
          "internalType": "uint256",
          "name": "",
          "type": "uint256"
        }
      ],
      "stateMutability": "view",
      "type": "function"
    },
    {
      "inputs": [],
      "name": "owner",
      "outputs": [
        {
          "internalType": "address",
          "name": "",
          "type": "address"
        }
      ],
      "stateMutability": "view",
      "type": "function"
    },
    {
      "inputs": [
        {
          "internalType": "uint256",
          "name": "",
          "type": "uint256"
        }
      ],
      "name": "productReviewsArray",
      "outputs": [
        {
          "internalType": "bytes32",
          "name": "attestationUID",
          "type": "bytes32"
        },
        {
          "internalType": "uint256",
          "name": "productId",
          "type": "uint256"
        },
        {
          "internalType": "address",
          "name": "buyerAddress",
          "type": "address"
        },
        {
          "internalType": "string",
          "name": "review",
          "type": "string"
        }
      ],
      "stateMutability": "view",
      "type": "function"
    },
    {
      "inputs": [
        {
          "internalType": "uint256",
          "name": "",
          "type": "uint256"
        }
      ],
      "name": "products",
      "outputs": [
        {
          "internalType": "uint256",
          "name": "id",
          "type": "uint256"
        },
        {
          "internalType": "string",
          "name": "name",
          "type": "string"
        },
        {
          "internalType": "uint256",
          "name": "priceInETH",
          "type": "uint256"
        },
        {
          "internalType": "uint256",
          "name": "priceInToken",
          "type": "uint256"
        }
      ],
      "stateMutability": "view",
      "type": "function"
    },
    {
      "inputs": [
        {
          "internalType": "uint256",
          "name": "",
          "type": "uint256"
        }
      ],
      "name": "productsArray",
      "outputs": [
        {
          "internalType": "uint256",
          "name": "id",
          "type": "uint256"
        },
        {
          "internalType": "string",
          "name": "name",
          "type": "string"
        },
        {
          "internalType": "uint256",
          "name": "priceInETH",
          "type": "uint256"
        },
        {
          "internalType": "uint256",
          "name": "priceInToken",
          "type": "uint256"
        }
      ],
      "stateMutability": "view",
      "type": "function"
    },
    {
      "inputs": [
        {
          "internalType": "uint256",
          "name": "",
          "type": "uint256"
        }
      ],
      "name": "productsMapping",
      "outputs": [
        {
          "internalType": "bool",
          "name": "",
          "type": "bool"
        }
      ],
      "stateMutability": "view",
      "type": "function"
    },
    {
      "inputs": [],
      "name": "renounceOwnership",
      "outputs": [],
      "stateMutability": "nonpayable",
      "type": "function"
    },
    {
      "inputs": [
        {
          "internalType": "uint256",
          "name": "id",
          "type": "uint256"
        },
        {
          "internalType": "string",
          "name": "review",
          "type": "string"
        }
      ],
      "name": "reviewProduct",
      "outputs": [],
      "stateMutability": "nonpayable",
      "type": "function"
    },
    {
      "inputs": [
        {
          "internalType": "address",
          "name": "newOwner",
          "type": "address"
        }
      ],
      "name": "transferOwnership",
      "outputs": [],
      "stateMutability": "nonpayable",
      "type": "function"
    },
    {
      "inputs": [],
      "name": "trustScriptProductReviewAttester",
      "outputs": [
        {
          "internalType": "contract TrustScriptProductReviewAttester",
          "name": "",
          "type": "address"
        }
      ],
      "stateMutability": "view",
      "type": "function"
    },
    {
      "inputs": [],
      "name": "trustScriptToken",
      "outputs": [
        {
          "internalType": "contract TrustScriptToken",
          "name": "",
          "type": "address"
        }
      ],
      "stateMutability": "view",
      "type": "function"
    },
    {
      "inputs": [],
      "name": "withdrawETH",
      "outputs": [],
      "stateMutability": "nonpayable",
      "type": "function"
    },
    {
      "inputs": [],
      "name": "withdrawToken",
      "outputs": [],
      "stateMutability": "nonpayable",
      "type": "function"
    }
  ],
  "transactionHash": "0xf5586197cb1e93e301e4c30dff02033ddf60223e61d05682739db9e9b9a4b361",
  "args": [
    "0x35fAadD6fC68619b72A7Bfb871eDcC069C2f1bc3",
    "0xE7B11a5691d0B190C4a9c5fcc67cfc2daE7bE8Ef",
    "0x3255CcC2FEc602e35879fEaf12Fd4b787e43Da4B"
  ],
  "numDeployments": 1,
  "solcInputHash": "352858e9c315cf7bf43df53db51bf624",
  "bytecode": "0x60806040523480156200001157600080fd5b50604051620020ab380380620020ab8339810160408190526200003491620001d6565b6200003f3362000088565b6200005583620000d860201b620015041760201c565b600180546001600160a01b039384166001600160a01b031991821617909155600980549290931691161790555062000220565b600080546001600160a01b038381166001600160a01b0319831681178455604051919092169283917f8be0079c531659141344cd1fd0a4f28419497f9722a3daafe3b4186f6b6457e09190a35050565b620000e26200015b565b6001600160a01b0381166200014d5760405162461bcd60e51b815260206004820152602660248201527f4f776e61626c653a206e6577206f776e657220697320746865207a65726f206160448201526564647265737360d01b60648201526084015b60405180910390fd5b620001588162000088565b50565b6000546001600160a01b03163314620001b75760405162461bcd60e51b815260206004820181905260248201527f4f776e61626c653a2063616c6c6572206973206e6f7420746865206f776e6572604482015260640162000144565b565b80516001600160a01b0381168114620001d157600080fd5b919050565b600080600060608486031215620001ec57600080fd5b620001f784620001b9565b92506200020760208501620001b9565b91506200021760408501620001b9565b90509250925092565b611e7b80620002306000396000f3fe6080604052600436106101355760003560e01c80637fede655116100ab578063bc6e66041161006f578063bc6e660414610390578063c66301b2146103a6578063ca628c78146103bc578063d4bde5a4146103d1578063e086e5ec146103f1578063f2fde38b1461040657600080fd5b80637fede655146102eb5780638da5cb5b1461030d5780638ec8b9201461032b5780639209aba31461035b57806399f171a21461037b57600080fd5b806342ceec68116100fd57806342ceec68146101f65780634e20275114610216578063533fea02146102465780636b24808014610276578063715018a6146102b65780637acc0b20146102cb57600080fd5b806302ee3a521461013a5780630b048bf9146101655780630d0438e51461017a5780633d136ce61461019e578063408b464b146101d6575b600080fd5b34801561014657600080fd5b5061014f610426565b60405161015c91906116ac565b60405180910390f35b61017861017336600461170e565b610623565b005b34801561018657600080fd5b5061019060075481565b60405190815260200161015c565b3480156101aa57600080fd5b506001546101be906001600160a01b031681565b6040516001600160a01b03909116815260200161015c565b3480156101e257600080fd5b506101786101f13660046117ca565b610788565b34801561020257600080fd5b5061017861021136600461186e565b6109e8565b34801561022257600080fd5b5061023661023136600461170e565b610b65565b60405161015c9493929190611890565b34801561025257600080fd5b5061026661026136600461170e565b610c37565b60405161015c94939291906118c7565b34801561028257600080fd5b506102a66102913660046118f3565b60086020526000908152604090205460ff1681565b604051901515815260200161015c565b3480156102c257600080fd5b50610178610cfb565b3480156102d757600080fd5b506102666102e636600461170e565b610d0f565b3480156102f757600080fd5b50610300610d31565b60405161015c9190611966565b34801561031957600080fd5b506000546001600160a01b03166101be565b34801561033757600080fd5b506102a661034636600461170e565b60026020526000908152604090205460ff1681565b34801561036757600080fd5b506101786103763660046119bb565b610f38565b34801561038757600080fd5b50610190600581565b34801561039c57600080fd5b506101906103e881565b3480156103b257600080fd5b5061019060055481565b3480156103c857600080fd5b5061017861133e565b3480156103dd57600080fd5b506009546101be906001600160a01b031681565b3480156103fd57600080fd5b5061017861145a565b34801561041257600080fd5b506101786104213660046118f3565b611504565b606060055460000361048c576040805160008082526020820190925290610486565b6104736040518060800160405280600081526020016060815260200160008152602001600081525090565b8152602001906001900390816104485790505b50905090565b60055467ffffffffffffffff8111156104a7576104a7611727565b60405190808252806020026020018201604052801561050357816020015b6104f06040518060800160405280600081526020016060815260200160008152602001600081525090565b8152602001906001900390816104c55790505b50905060005b60055481101561061f576003818154811061052657610526611a02565b90600052602060002090600402016040518060800160405290816000820154815260200160018201805461055990611a18565b80601f016020809104026020016040519081016040528092919081815260200182805461058590611a18565b80156105d25780601f106105a7576101008083540402835291602001916105d2565b820191906000526020600020905b8154815290600101906020018083116105b557829003601f168201915b505050505081526020016002820154815260200160038201548152505082828151811061060157610601611a02565b6020026020010181905250808061061790611a68565b915050610509565b5090565b60008181526002602052604090205460ff1661065a576040516307a9245160e31b8152600481018290526024015b60405180910390fd5b60008181526004602052604090206002015434811461069557604051630e937f8360e31b815234600482015260248101829052604401610651565b3360009081526008602052604090205460ff166106c757336000908152600860205260409020805460ff191660011790555b600080546040516001600160a01b039091169083908381818185875af1925050503d8060008114610714576040519150601f19603f3d011682016040523d82523d6000602084013e610719565b606091505b505090508061073b5760405163153eabe760e21b815260040160405180910390fd5b6000838152600460205260409081902090517f19a3eccebf05b60f639f9a561502f134440e6a52fa8d827007ce0969d3e3385c9161077b91339190611a81565b60405180910390a1505050565b61079061157d565b805160009081526002602052604090205460ff16156107c857805160405163041a639760e21b81526004810191909152602401610651565b60608101516107df90670de0b6b3a7640000611b44565b600160009054906101000a90046001600160a01b03166001600160a01b031663313ce5676040518163ffffffff1660e01b8152600401602060405180830381865afa158015610832573d6000803e3d6000fd5b505050506040513d601f19601f820116820180604052508101906108569190611b61565b61086190600a611c68565b6103e883604001516108739190611b44565b61087d9190611b44565b146108b05780604001518160600151604051630715c89760e21b8152600401610651929190918252602082015260400190565b805160009081526002602090815260408220805460ff19166001908117909155600380549182018155909252825160049092027fc2575a0e9e593c00f959f8c92f12db2869c3395a3b0502d05e2516446f71f85b8101928355908301518392917fc2575a0e9e593c00f959f8c92f12db2869c3395a3b0502d05e2516446f71f85c019061093d9082611cc6565b5060408281015160028301556060909201516003909101558151600090815260046020908152919020825181559082015182919060018201906109809082611cc6565b5060408201516002820155606090910151600390910155600580549060006109a783611a68565b91905055507fda6934b8f19a3a0d0eb02b64815759fd43e8e9461f861c6915bf365f587b190033826040516109dd929190611d86565b60405180910390a150565b60008281526002602052604090205460ff16610a1a576040516307a9245160e31b815260048101839052602401610651565b600082815260046020526040902060030154818114610a5657604051632839176f60e11b81526004810183905260248101829052604401610651565b3360009081526008602052604090205460ff16610a8857336000908152600860205260409020805460ff191660011790555b6001546001600160a01b03166323b872dd33610aac6000546001600160a01b031690565b6040516001600160e01b031960e085901b1681526001600160a01b03928316600482015291166024820152604481018590526064016020604051808303816000875af1158015610b00573d6000803e3d6000fd5b505050506040513d601f19601f82011682018060405250810190610b249190611daa565b506000838152600460205260409081902090517f1d721d33646769865643717401dd14901d3cc2724d6902377b57823d12a568569161077b91339190611a81565b60068181548110610b7557600080fd5b6000918252602090912060049091020180546001820154600283015460038401805493955091936001600160a01b0390911692909190610bb490611a18565b80601f0160208091040260200160405190810160405280929190818152602001828054610be090611a18565b8015610c2d5780601f10610c0257610100808354040283529160200191610c2d565b820191906000526020600020905b815481529060010190602001808311610c1057829003601f168201915b5050505050905084565b60038181548110610c4757600080fd5b60009182526020909120600490910201805460018201805491935090610c6c90611a18565b80601f0160208091040260200160405190810160405280929190818152602001828054610c9890611a18565b8015610ce55780601f10610cba57610100808354040283529160200191610ce5565b820191906000526020600020905b815481529060010190602001808311610cc857829003601f168201915b5050505050908060020154908060030154905084565b610d0361157d565b610d0d60006115d7565b565b60046020526000908152604090208054600182018054919291610c6c90611a18565b6060600754600003610d8b576040805160008082526020820190925290610486565b6040805160808101825260008082526020808301829052928201526060808201528252600019909201910181610d5357905050905090565b60075467ffffffffffffffff811115610da657610da6611727565b604051908082528060200260200182016040528015610df757816020015b6040805160808101825260008082526020808301829052928201526060808201528252600019909201910181610dc45790505b50905060005b60075481101561061f5760068181548110610e1a57610e1a611a02565b906000526020600020906004020160405180608001604052908160008201548152602001600182015481526020016002820160009054906101000a90046001600160a01b03166001600160a01b03166001600160a01b03168152602001600382018054610e8690611a18565b80601f0160208091040260200160405190810160405280929190818152602001828054610eb290611a18565b8015610eff5780601f10610ed457610100808354040283529160200191610eff565b820191906000526020600020905b815481529060010190602001808311610ee257829003601f168201915b505050505081525050828281518110610f1a57610f1a611a02565b60200260200101819052508080610f3090611a68565b915050610dfd565b3360009081526008602052604090205460ff16610f6a5760405163030a05bf60e21b8152336004820152602401610651565b60008281526002602052604090205460ff16610f9c576040516307a9245160e31b815260048101839052602401610651565b6009546000906001600160a01b031663ea5372d3843385610fc56000546001600160a01b031690565b6040518563ffffffff1660e01b8152600401610fe49493929190611dcc565b6020604051808303816000875af1158015611003573d6000803e3d6000fd5b505050506040513d601f19601f820116820180604052508101906110279190611e08565b604080516080810182528281526020810186905233818301819052606082018690529151929350917fe89cb4b91d2907a16cfef2ae4fcaa2b8f94dedb43503e0c1de2413c2ff4f16429161107c918490611e21565b60405180910390a16006805460018101825560009190915281517ff652222313e28459528d920b65115c16c04f3efc82aaedc97be59f3f377c0d3f600490920291820190815560208301517ff652222313e28459528d920b65115c16c04f3efc82aaedc97be59f3f377c0d4083015560408301517ff652222313e28459528d920b65115c16c04f3efc82aaedc97be59f3f377c0d41830180546001600160a01b0319166001600160a01b03909216919091179055606083015183927ff652222313e28459528d920b65115c16c04f3efc82aaedc97be59f3f377c0d4201906111649082611cc6565b5050600780549150600061117783611a68565b90915550506001546040805163313ce56760e01b815290516001600160a01b03909216916340c10f19913391849163313ce5679160048083019260209291908290030181865afa1580156111cf573d6000803e3d6000fd5b505050506040513d601f19601f820116820180604052508101906111f39190611b61565b6111fe90600a611c68565b611209906005611b44565b6040516001600160e01b031960e085901b1681526001600160a01b0390921660048301526024820152604401600060405180830381600087803b15801561124f57600080fd5b505af1158015611263573d6000803e3d6000fd5b505050507f1a628df0209a48522b66d5226782fac0327ed236ff817fdbcb20425bb97e32f333600160009054906101000a90046001600160a01b03166001600160a01b031663313ce5676040518163ffffffff1660e01b8152600401602060405180830381865afa1580156112dc573d6000803e3d6000fd5b505050506040513d601f19601f820116820180604052508101906113009190611b61565b61130b90600a611c68565b611316906005611b44565b604080516001600160a01b03909316835260208301919091520160405180910390a150505050565b61134661157d565b6001546040516370a0823160e01b81523060048201526000916001600160a01b0316906370a0823190602401602060405180830381865afa15801561138f573d6000803e3d6000fd5b505050506040513d601f19601f820116820180604052508101906113b39190611e08565b60015460405163a9059cbb60e01b8152336004820152602481018390529192506001600160a01b03169063a9059cbb906044016020604051808303816000875af1158015611405573d6000803e3d6000fd5b505050506040513d601f19601f820116820180604052508101906114299190611daa565b506040518181527fa4b910fb649c34bca8f9ecc6ba43090dbd1d14f3197d9f10ca054de15da71601906020016109dd565b61146261157d565b6040514790600090339083908381818185875af1925050503d80600081146114a6576040519150601f19603f3d011682016040523d82523d6000602084013e6114ab565b606091505b50509050806114cd5760405163153eabe760e21b815260040160405180910390fd5b6040518281527f94effa14ea3a1ef396fa2fd829336d1597f1d76b548c26bfa2332869706638af9060200160405180910390a15050565b61150c61157d565b6001600160a01b0381166115715760405162461bcd60e51b815260206004820152602660248201527f4f776e61626c653a206e6577206f776e657220697320746865207a65726f206160448201526564647265737360d01b6064820152608401610651565b61157a816115d7565b50565b6000546001600160a01b03163314610d0d5760405162461bcd60e51b815260206004820181905260248201527f4f776e61626c653a2063616c6c6572206973206e6f7420746865206f776e65726044820152606401610651565b600080546001600160a01b038381166001600160a01b0319831681178455604051919092169283917f8be0079c531659141344cd1fd0a4f28419497f9722a3daafe3b4186f6b6457e09190a35050565b6000815180845260005b8181101561164d57602081850181015186830182015201611631565b506000602082860101526020601f19601f83011685010191505092915050565b80518252600060208201516080602085015261168c6080850182611627565b905060408301516040850152606083015160608501528091505092915050565b6000602080830181845280855180835260408601915060408160051b870101925083870160005b8281101561170157603f198886030184526116ef85835161166d565b945092850192908501906001016116d3565b5092979650505050505050565b60006020828403121561172057600080fd5b5035919050565b634e487b7160e01b600052604160045260246000fd5b600082601f83011261174e57600080fd5b813567ffffffffffffffff8082111561176957611769611727565b604051601f8301601f19908116603f0116810190828211818310171561179157611791611727565b816040528381528660208588010111156117aa57600080fd5b836020870160208301376000602085830101528094505050505092915050565b6000602082840312156117dc57600080fd5b813567ffffffffffffffff808211156117f457600080fd5b908301906080828603121561180857600080fd5b60405160808101818110838211171561182357611823611727565b6040528235815260208301358281111561183c57600080fd5b6118488782860161173d565b602083015250604083013560408201526060830135606082015280935050505092915050565b6000806040838503121561188157600080fd5b50508035926020909101359150565b84815283602082015260018060a01b03831660408201526080606082015260006118bd6080830184611627565b9695505050505050565b8481526080602082015260006118e06080830186611627565b6040830194909452506060015292915050565b60006020828403121561190557600080fd5b81356001600160a01b038116811461191c57600080fd5b9392505050565b805182526020810151602083015260018060a01b036040820151166040830152600060608201516080606085015261195e6080850182611627565b949350505050565b6000602080830181845280855180835260408601915060408160051b870101925083870160005b8281101561170157603f198886030184526119a9858351611923565b9450928501929085019060010161198d565b600080604083850312156119ce57600080fd5b82359150602083013567ffffffffffffffff8111156119ec57600080fd5b6119f88582860161173d565b9150509250929050565b634e487b7160e01b600052603260045260246000fd5b600181811c90821680611a2c57607f821691505b602082108103611a4c57634e487b7160e01b600052602260045260246000fd5b50919050565b634e487b7160e01b600052601160045260246000fd5b600060018201611a7a57611a7a611a52565b5060010190565b60018060a01b0383168152600060206040818401528354604084015260018085016080606086015260008154611ab681611a18565b8060c089015260e085831660008114611ad65760018114611af057611b1e565b60ff1984168a83015282151560051b8a0182019450611b1e565b856000528760002060005b84811015611b165781548c8201850152908801908901611afb565b8b0183019550505b5050505060028701546080870152600387015460a0870152809450505050509392505050565b8082028115828204841417611b5b57611b5b611a52565b92915050565b600060208284031215611b7357600080fd5b815160ff8116811461191c57600080fd5b600181815b80851115611bbf578160001904821115611ba557611ba5611a52565b80851615611bb257918102915b93841c9390800290611b89565b509250929050565b600082611bd657506001611b5b565b81611be357506000611b5b565b8160018114611bf95760028114611c0357611c1f565b6001915050611b5b565b60ff841115611c1457611c14611a52565b50506001821b611b5b565b5060208310610133831016604e8410600b8410161715611c42575081810a611b5b565b611c4c8383611b84565b8060001904821115611c6057611c60611a52565b029392505050565b600061191c60ff841683611bc7565b601f821115611cc157600081815260208120601f850160051c81016020861015611c9e5750805b601f850160051c820191505b81811015611cbd57828155600101611caa565b5050505b505050565b815167ffffffffffffffff811115611ce057611ce0611727565b611cf481611cee8454611a18565b84611c77565b602080601f831160018114611d295760008415611d115750858301515b600019600386901b1c1916600185901b178555611cbd565b600085815260208120601f198616915b82811015611d5857888601518255948401946001909101908401611d39565b5085821015611d765787850151600019600388901b60f8161c191681555b5050505050600190811b01905550565b6001600160a01b038316815260406020820181905260009061195e9083018461166d565b600060208284031215611dbc57600080fd5b8151801515811461191c57600080fd5b848152600060018060a01b03808616602084015260806040840152611df46080840186611627565b915080841660608401525095945050505050565b600060208284031215611e1a57600080fd5b5051919050565b6001600160a01b038316815260406020820181905260009061195e9083018461192356fea264697066735822122059eed2e24a555eccd1bebfc1c6fbe3598399178d83107121a4d543fe287c7d5364736f6c63430008110033",
  "devdoc": {
    "kind": "dev",
    "methods": {
      "owner()": {
        "details": "Returns the address of the current owner."
      },
      "renounceOwnership()": {
        "details": "Leaves the contract without owner. It will not be possible to call `onlyOwner` functions. Can only be called by the current owner. NOTE: Renouncing ownership will leave the contract without an owner, thereby disabling any functionality that is only available to the owner."
      },
      "transferOwnership(address)": {
        "details": "Transfers ownership of the contract to a new account (`newOwner`). Can only be called by the current owner."
      }
    },
    "version": 1
  },
  "userdoc": {
    "kind": "user",
    "methods": {},
    "version": 1
  },
  "storageLayout": {
    "storage": [
      {
        "astId": 490,
        "contract": "contracts/TrustScriptShop.sol:TrustScriptShop",
        "label": "_owner",
        "offset": 0,
        "slot": "0",
        "type": "t_address"
      },
      {
        "astId": 1421,
        "contract": "contracts/TrustScriptShop.sol:TrustScriptShop",
        "label": "trustScriptToken",
        "offset": 0,
        "slot": "1",
        "type": "t_contract(TrustScriptToken)2129"
      },
      {
        "astId": 1431,
        "contract": "contracts/TrustScriptShop.sol:TrustScriptShop",
        "label": "productsMapping",
        "offset": 0,
        "slot": "2",
        "type": "t_mapping(t_uint256,t_bool)"
      },
      {
        "astId": 1435,
        "contract": "contracts/TrustScriptShop.sol:TrustScriptShop",
        "label": "productsArray",
        "offset": 0,
        "slot": "3",
        "type": "t_array(t_struct(Product)1409_storage)dyn_storage"
      },
      {
        "astId": 1440,
        "contract": "contracts/TrustScriptShop.sol:TrustScriptShop",
        "label": "products",
        "offset": 0,
        "slot": "4",
        "type": "t_mapping(t_uint256,t_struct(Product)1409_storage)"
      },
      {
        "astId": 1442,
        "contract": "contracts/TrustScriptShop.sol:TrustScriptShop",
        "label": "numberOfProducts",
        "offset": 0,
        "slot": "5",
        "type": "t_uint256"
      },
      {
        "astId": 1446,
        "contract": "contracts/TrustScriptShop.sol:TrustScriptShop",
        "label": "productReviewsArray",
        "offset": 0,
        "slot": "6",
        "type": "t_array(t_struct(ProductReview)1418_storage)dyn_storage"
      },
      {
        "astId": 1448,
        "contract": "contracts/TrustScriptShop.sol:TrustScriptShop",
        "label": "numberOfProductReviews",
        "offset": 0,
        "slot": "7",
        "type": "t_uint256"
      },
      {
        "astId": 1452,
        "contract": "contracts/TrustScriptShop.sol:TrustScriptShop",
        "label": "allowedAttesters",
        "offset": 0,
        "slot": "8",
        "type": "t_mapping(t_address,t_bool)"
      },
      {
        "astId": 1455,
        "contract": "contracts/TrustScriptShop.sol:TrustScriptShop",
        "label": "trustScriptProductReviewAttester",
        "offset": 0,
        "slot": "9",
        "type": "t_contract(TrustScriptProductReviewAttester)1392"
      }
    ],
    "types": {
      "t_address": {
        "encoding": "inplace",
        "label": "address",
        "numberOfBytes": "20"
      },
      "t_array(t_struct(Product)1409_storage)dyn_storage": {
        "base": "t_struct(Product)1409_storage",
        "encoding": "dynamic_array",
        "label": "struct TrustScriptShop.Product[]",
        "numberOfBytes": "32"
      },
      "t_array(t_struct(ProductReview)1418_storage)dyn_storage": {
        "base": "t_struct(ProductReview)1418_storage",
        "encoding": "dynamic_array",
        "label": "struct TrustScriptShop.ProductReview[]",
        "numberOfBytes": "32"
      },
      "t_bool": {
        "encoding": "inplace",
        "label": "bool",
        "numberOfBytes": "1"
      },
      "t_bytes32": {
        "encoding": "inplace",
        "label": "bytes32",
        "numberOfBytes": "32"
      },
      "t_contract(TrustScriptProductReviewAttester)1392": {
        "encoding": "inplace",
        "label": "contract TrustScriptProductReviewAttester",
        "numberOfBytes": "20"
      },
      "t_contract(TrustScriptToken)2129": {
        "encoding": "inplace",
        "label": "contract TrustScriptToken",
        "numberOfBytes": "20"
      },
      "t_mapping(t_address,t_bool)": {
        "encoding": "mapping",
        "key": "t_address",
        "label": "mapping(address => bool)",
        "numberOfBytes": "32",
        "value": "t_bool"
      },
      "t_mapping(t_uint256,t_bool)": {
        "encoding": "mapping",
        "key": "t_uint256",
        "label": "mapping(uint256 => bool)",
        "numberOfBytes": "32",
        "value": "t_bool"
      },
      "t_mapping(t_uint256,t_struct(Product)1409_storage)": {
        "encoding": "mapping",
        "key": "t_uint256",
        "label": "mapping(uint256 => struct TrustScriptShop.Product)",
        "numberOfBytes": "32",
        "value": "t_struct(Product)1409_storage"
      },
      "t_string_storage": {
        "encoding": "bytes",
        "label": "string",
        "numberOfBytes": "32"
      },
      "t_struct(Product)1409_storage": {
        "encoding": "inplace",
        "label": "struct TrustScriptShop.Product",
        "members": [
          {
            "astId": 1402,
            "contract": "contracts/TrustScriptShop.sol:TrustScriptShop",
            "label": "id",
            "offset": 0,
            "slot": "0",
            "type": "t_uint256"
          },
          {
            "astId": 1404,
            "contract": "contracts/TrustScriptShop.sol:TrustScriptShop",
            "label": "name",
            "offset": 0,
            "slot": "1",
            "type": "t_string_storage"
          },
          {
            "astId": 1406,
            "contract": "contracts/TrustScriptShop.sol:TrustScriptShop",
            "label": "priceInETH",
            "offset": 0,
            "slot": "2",
            "type": "t_uint256"
          },
          {
            "astId": 1408,
            "contract": "contracts/TrustScriptShop.sol:TrustScriptShop",
            "label": "priceInToken",
            "offset": 0,
            "slot": "3",
            "type": "t_uint256"
          }
        ],
        "numberOfBytes": "128"
      },
      "t_struct(ProductReview)1418_storage": {
        "encoding": "inplace",
        "label": "struct TrustScriptShop.ProductReview",
        "members": [
          {
            "astId": 1411,
            "contract": "contracts/TrustScriptShop.sol:TrustScriptShop",
            "label": "attestationUID",
            "offset": 0,
            "slot": "0",
            "type": "t_bytes32"
          },
          {
            "astId": 1413,
            "contract": "contracts/TrustScriptShop.sol:TrustScriptShop",
            "label": "productId",
            "offset": 0,
            "slot": "1",
            "type": "t_uint256"
          },
          {
            "astId": 1415,
            "contract": "contracts/TrustScriptShop.sol:TrustScriptShop",
            "label": "buyerAddress",
            "offset": 0,
            "slot": "2",
            "type": "t_address"
          },
          {
            "astId": 1417,
            "contract": "contracts/TrustScriptShop.sol:TrustScriptShop",
            "label": "review",
            "offset": 0,
            "slot": "3",
            "type": "t_string_storage"
          }
        ],
        "numberOfBytes": "128"
      },
      "t_uint256": {
        "encoding": "inplace",
        "label": "uint256",
        "numberOfBytes": "32"
      }
    }
  }
}