{
  "address": "0x80Eb3ccE63E5beDFe067e56e8c3dCCcbf1522247",
  "abi": [
    {
      "inputs": [
        {
          "internalType": "contract IEAS",
          "name": "easAddress",
          "type": "address"
        },
        {
          "internalType": "bytes32",
          "name": "_productReviewSchemaUID",
          "type": "bytes32"
        }
      ],
      "stateMutability": "nonpayable",
      "type": "constructor"
    },
    {
      "inputs": [],
      "name": "InvalidEAS",
      "type": "error"
    },
    {
      "inputs": [
        {
          "components": [
            {
              "internalType": "uint256",
              "name": "productId",
              "type": "uint256"
            },
            {
              "internalType": "address",
              "name": "buyerAddress",
              "type": "address"
            },
            {
              "internalType": "string",
              "name": "review",
              "type": "string"
            }
          ],
          "internalType": "struct ProductReview",
          "name": "productReview",
          "type": "tuple"
        },
        {
          "internalType": "address",
          "name": "sellerAddress",
          "type": "address"
        }
      ],
      "name": "attestProductReview",
      "outputs": [
        {
          "internalType": "bytes32",
          "name": "attestationUID",
          "type": "bytes32"
        }
      ],
      "stateMutability": "nonpayable",
      "type": "function"
    },
    {
      "inputs": [],
      "name": "eas",
      "outputs": [
        {
          "internalType": "contract IEAS",
          "name": "",
          "type": "address"
        }
      ],
      "stateMutability": "view",
      "type": "function"
    },
    {
      "inputs": [],
      "name": "productReviewSchemaUID",
      "outputs": [
        {
          "internalType": "bytes32",
          "name": "",
          "type": "bytes32"
        }
      ],
      "stateMutability": "view",
      "type": "function"
    }
  ],
  "transactionHash": "0x1e9fbfc95e0580c23b7f27d7bdb2649088adef8fbbbaeb33ca659780d14507b5",
  "args": [
    "0x4200000000000000000000000000000000000021",
    "0xa844aad897e631c5200bc2a0f5c093eeb3e96baa4f8428d93dbcb76e775906a9"
  ],
  "numDeployments": 1,
  "solcInputHash": "600a4f1d04d1120bafc3a677d8e15185",
  "bytecode": "0x60c060405234801561001057600080fd5b506040516105b03803806105b083398101604081905261002f9161006c565b6001600160a01b038216610056576040516341bc07ff60e11b815260040160405180910390fd5b6001600160a01b0390911660805260a0526100a6565b6000806040838503121561007f57600080fd5b82516001600160a01b038116811461009657600080fd5b6020939093015192949293505050565b60805160a0516104da6100d66000396000818160b00152610110015260008181604b015260d601526104da6000f3fe608060405234801561001057600080fd5b50600436106100415760003560e01c80638150864d146100465780639eb254611461008a578063ba2aa1e9146100ab575b600080fd5b61006d7f000000000000000000000000000000000000000000000000000000000000000081565b6040516001600160a01b0390911681526020015b60405180910390f35b61009d6100983660046102a0565b6100d2565b604051908152602001610081565b61009d7f000000000000000000000000000000000000000000000000000000000000000081565b60007f00000000000000000000000000000000000000000000000000000000000000006001600160a01b031663f17325e760405180604001604052807f000000000000000000000000000000000000000000000000000000000000000081526020016040518060c00160405280876001600160a01b03168152602001600067ffffffffffffffff1681526020016001151581526020016000801b8152602001886000015189602001518a60400151604051602001610192939291906103d5565b604051602081830303815290604052815260200160008152508152506040518263ffffffff1660e01b81526004016101ca9190610408565b6020604051808303816000875af11580156101e9573d6000803e3d6000fd5b505050506040513d601f19601f8201168201806040525081019061020d919061048b565b9392505050565b634e487b7160e01b600052604160045260246000fd5b6040516060810167ffffffffffffffff8111828210171561024d5761024d610214565b60405290565b604051601f8201601f1916810167ffffffffffffffff8111828210171561027c5761027c610214565b604052919050565b80356001600160a01b038116811461029b57600080fd5b919050565b600080604083850312156102b357600080fd5b823567ffffffffffffffff808211156102cb57600080fd5b90840190606082870312156102df57600080fd5b6102e761022a565b8235815260206102f8818501610284565b8183015260408401358381111561030e57600080fd5b80850194505087601f85011261032357600080fd5b83358381111561033557610335610214565b610347601f8201601f19168301610253565b9350808452888282870101111561035d57600080fd5b8082860183860137600082828601015250826040830152819550610382818801610284565b9450505050509250929050565b6000815180845260005b818110156103b557602081850181015186830182015201610399565b506000602082860101526020601f19601f83011685010191505092915050565b8381526001600160a01b03831660208201526060604082018190526000906103ff9083018461038f565b95945050505050565b60208152815160208201526000602083015160408084015260018060a01b03815116606084015267ffffffffffffffff60208201511660808401526040810151151560a0840152606081015160c0840152608081015160c060e085015261047361012085018261038f565b905060a0820151610100850152809250505092915050565b60006020828403121561049d57600080fd5b505191905056fea26469706673582212206d1260541c85ee52112c165cfde16512bb9b269139158533283ad15f371b298364736f6c63430008110033",
  "devdoc": {
    "kind": "dev",
    "methods": {
      "attestProductReview((uint256,address,string),address)": {
        "params": {
          "productReview": "The ProductReview value to pass to to the resolver."
        },
        "returns": {
          "attestationUID": "The UID of the new attestation."
        }
      },
      "constructor": {
        "params": {
          "_productReviewSchemaUID": "The UID of the ProductReview schema.",
          "easAddress": "The address of the global EAS contract."
        }
      }
    },
    "title": "TrustScriptProductReviewAttester",
    "version": 1
  },
  "userdoc": {
    "kind": "user",
    "methods": {
      "attestProductReview((uint256,address,string),address)": {
        "notice": "Attests to a schema that receives a ProductReview parameter."
      },
      "constructor": {
        "notice": "Creates a new TrustScriptProductReviewAttester instance."
      }
    },
    "notice": "Ethereum Attestation Service - Example",
    "version": 1
  },
  "storageLayout": {
    "storage": [],
    "types": null
  }
}